:020000040800F2
:10000000E81000209D010008A723000863200008D5
:10001000A52300085B0700089B29000800000000DA
:10002000000000000000000000000000172500088C
:100030000D0800080000000015250008D92500085B
:10004000B7010008B7010008B7010008B7010008B0
:10005000B7010008B7010008B7010008B7010008A0
:10006000B7010008B7010008B7010008B701000890
:10007000B7010008B7010008B7010008B701000880
:10008000B7010008B7010008B7010008B701000870
:10009000B7010008B7010008B7010008B701000860
:1000A00081260008A5260008992600088D2600084C
:1000B000B1260008BD260008B7010008B7010008F6
:1000C000B7010008B7010008B7010008B701000830
:1000D000B7010008B7010008B7010008B701000820
:1000E000B7010008B7010008B7010008B701000810
:1000F000B7010008B7010008B7010008B701000800
:10010000B7010008B7010008B7010008B7010008EF
:10011000B7010008B7010008B7010008B7010008DF
:100120005D070008B7010008B7010008B701000823
:10013000B7010008B7010008B7010008B7010008BF
:10014000B7010008B7010008B7010008B7010008AF
:10015000B7010008B7010008B7010008B70100089F
:10016000B7010008B7010008B7010008B70100088F
:10017000B7010008B7010008B7010008000000003F
:10018000B7010008B7010008DFF80CD000F000F953
:1001900000480047412A0008E81000200648804730
:1001A00006480047FEE7FEE7FEE7FEE7FEE7FEE75C
:1001B000FEE7FEE7FEE7FEE771260008890100087A
:1001C0009FED1A1AF5EE000A40EE010ABDEEE00AB4
:1001D000F5EEC00A10EE100AF1EE10FA38BF401E1C
:1001E00000EE100A1349F7EE001AB8EEC00A30EE1E
:1001F000C00ADFED0F0A20EE200AFCEEC00A10EE66
:10020000900AC0F3080000EE900A01EB8000F8EEBF
:10021000600A90ED011A70EE600A90ED000A71EE2E
:10022000E01A21EE800A00EE810A704783F9223E2F
:1002300000000044D02A0008B5EEC00AF1EE10FA22
:1002400007D2DFED1E0AB4EEE00AF1EE10FAA8BF05
:100250007047DFED1B0AB5EEC00A60EE200ABDEE66
:10026000E01A11EE100AF1EE10FA38BF401E00EE4F
:10027000100A1549F7EE001AB8EEC00A30EEC00AAF
:10028000DFED100A60EE200ABCEEE00A10EE100A64
:10029000C0F3080000EE100A01EB8000B8EE400A3F
:1002A00090ED011A70EEC00A90ED000A71EEE01AAE
:1002B00021EE800A00EE810A70470000CD024CB4A6
:1002C00083F9223E00000044D02A00082DE9F05FA7
:1002D0000546002092469B468846064681464024B5
:1002E0001BE0284641464746224600F041F8534667
:1002F0005A46C01A914110D311461846224600F0C2
:1003000028F82D1A67EB01084F46224601200021EC
:1003100000F01FF817EB00094E41201EA4F1010464
:10032000DFDC484631462A464346BDE8F09FD2B25C
:1003300001E000F8012B491EFBD270470022F6E7CE
:1003400010B513460A4604461946FFF7F0FF20464B
:1003500010BD202A04DB203A00FA02F10020704789
:100360009140C2F1200320FA03F3194390407047F3
:10037000202A04DB203A21FA02F00021704721FAFA
:1003800002F3D040C2F12002914008431946704761
:10039000064C074D06E0E06840F0010394E80700D2
:1003A00098471034AC42F6D3FFF7F2FED43200087F
:1003B000F432000870B58C1810F8015B15F00703D3
:1003C00001D110F8013B2A1106D110F8012B03E0EE
:1003D00010F8016B01F8016B5B1EF9D12B0705D4F6
:1003E0000023521E0DD401F8013BFAE710F8013B3F
:1003F000CB1A921C03E013F8015B01F8015B521E5B
:10040000F9D5A142D8D3002070BD10B50146806B4C
:10041000026C12F0500F05D0026CD20626D500F007
:10042000A1FA10BD016C41F40071016401688A6891
:1004300012F0405F17D1027EAAB9CA6A12F4700F97
:1004400002D08A6852050ED44A6822F020024A601F
:10045000016C21F480710164016CC90403D4016C46
:1004600041F00101016400F07BFA10BD806BC26CA9
:10047000BDE810400846104710B5806B402101646C
:10048000416C41F00401416400F06CFA10BD10B5FC
:10049000806B00F066FA10BD464910B54A6822F438
:1004A00040324A604A6843681A434A6001684A68B1
:1004B00022F480724A6001684A68036942EA0322B2
:1004C0004A6001684A6822F040724A6001684A68DE
:1004D00083681A434A6001688A6822F400628A606D
:1004E00001688A68C3681A438A60816A6FF0706223
:1004F000D14201688A6822F070628A6001688A6865
:100500000CD0836A1A438A6001688A6822F04052DC
:100510008A6001688A68C36A1A4301E022F0405287
:100520008A6001688A6822F002028A6001688A682B
:10053000037E42EA43028A6090F820100029016895
:100540004A680FD042F400624A6001684A6822F4A7
:1005500060424A6001684A68174C436A04EB4333BF
:100560001A4301E022F400624A600168CA6A22F478
:100570007002CA620168CA6A838B104C04EB035391
:100580001A43CA6201688A6822F400728A600168AC
:100590008A6890F8303042EA43228A6001688A68AB
:1005A00022F480628A6001688A68406942EA802099
:1005B000886010BD0023014000E0FFFF0000F0FF55
:1005C00030B52549254C0B468A6A5B6A012A04EB43
:1005D000830501D01AB106E085ED000A03E085ED40
:1005E000000A5B1C4B624B6A834201D0012A2FD167
:1005F00000231A464B620BE004EB8205D1ED040A9E
:1006000095ED000A521C30EE200A81ED040A4A6280
:100610008242F1DB00EE100AD1ED040A1A46B8EE70
:10062000C00A80EE801A81ED061A4B6208E000BF16
:1006300004EB8203521C93ED010A83ED000A4A6227
:100640008242F5DB01209FED060A81ED040A8862F3
:1006500091ED060A30BD000000000020440100209A
:100660000000000030B52549254C0B468A6A5B6ABC
:10067000012A04EB830501D01AB106E085ED000ADA
:1006800003E085ED000A5B1C4B624B6A834201D09C
:10069000012A2FD100231A464B620BE004EB82059E
:1006A000D1ED030A95ED000A521C30EE200A81EDCF
:1006B000030A4A628242F1DB00EE100AD1ED030A1E
:1006C0001A46B8EEC00A80EE801A81ED051A4B6218
:1006D00008E000BF04EB8203521C93ED010A83ED96
:1006E000000A4A628242F5DB01209FED060A81ED95
:1006F000030A886291ED050A30BD00000000002069
:10070000640400200000000080ED050AD0ED000A1E
:10071000D0ED061A90ED072A20EE801AD0ED010ADE
:10072000D0ED0A2A00EEA11AD0ED020A00EE821ADC
:1007300090ED032AD0ED090A02EE201A90ED042A6A
:1007400002EE221A80ED081AC0ED0A0A80ED091A9D
:10075000C0ED071A80ED060A7047FEE7014800F079
:10076000BBBA0000300B002001681823CAB2103A4F
:10077000B2FBF3F2054B6FF30901032A9B5CC365DF
:1007800000D9091D8165084670470000B82A000895
:1007900010B5014600208B698A6A4FF0C07453B1CE
:1007A000B3F5005F15D072B1012A0CD0022A0AD02D
:1007B000032A09D104E01AB1012A06D0022A03D182
:1007C000C96AC90100D5012010BDC96AA142FAD089
:1007D00010BD002AF7D0012AF2D0022AF3D0032A52
:1007E000F3D010BD30B50468256825F48025256058
:1007F000046863608368402B036803D099600068D5
:10080000C26030BD9A600068C16030BD704772B68A
:10081000FEE7000078B50024009490F83C20012AFF
:1008200019D0012280F83C200A6807230568092AAC
:1008300013D9EE680A3A02EB420293409E43EE60FF
:100840000B788A680A3B03EB43039A400368DD6830
:100850002A43DA6010E0022078BD2E6902EB4202E2
:1008600093409E432E610B788A6803EB43039A40C2
:1008700003681D692A431A614A681F23072A13D295
:1008800005686E6B521E02EB820293409E436E63BC
:100890000B790A885B1E92B203EB83039A400368CC
:1008A0005D6B2A435A6327E005680D2A12D22E6B2E
:1008B000D21F02EB820293409E432E630B790A887B
:1008C000DB1F92B203EB83039A4003681D6B2A433C
:1008D0001A6311E0EE6A0D3A02EB820293409E43E6
:1008E000EE620B790A880D3B92B203EB83039A40C8
:1008F0000368DD6A2A43DA62164B0568144A9D4292
:1009000006D10D68122D03D1556845F48005556058
:1009100005689D4218D10B68102B01D0112B13D103
:10092000536843F400035360096810290CD10A4945
:100930000A4A0968B1FBF2F101EB8101490000E0CC
:10094000491E00910029FBD180F83C40002078BD71
:1009500000230140002001407000002040420F00B1
:1009600070477047704770B504004FF0000503D022
:10097000206C002610B107E0012070BD204600F079
:100980001DF8666484F83C60206CC00610D4206CAE
:1009900020F4885040F0020020642046FFF77CFDE0
:1009A0006664206C20F0020040F00100206400E04A
:1009B000012584F83C60284670BD000070B586B003
:1009C000064614216846FFF7B9FC1E493068884284
:1009D00035D11D480025016841F48071016000682F
:1009E00000F48070059018481438016841F0010146
:1009F00001600068694600F0010005900F2000903A
:100A00000320CDE90105114800F0D8FA114C104837
:100A1000C4E900050015A560C4E903504000606109
:100A20008000A0614011E0614002C4E90805204651
:100A300000F022FA08B1FFF7EAFEB463A66306B03D
:100A400070BD000000200140443802400000024018
:100A500010640240300B0020F8B5044600200E461A
:100A6000009094F83C10012907D0012184F83C1033
:100A700021688B68DB0702D011E00220F8BD8B688B
:100A800043F001038B604049404B0968B1FBF3F12F
:100A900001EB410100E0491E00910029FBD12168D2
:100AA0008B68DB0503D58B6823F480738B6021682A
:100AB0008B68DB075DD0236C40F20165AB4343F4E8
:100AC000807323644968490505D5216C21F40051E0
:100AD00041F480512164216CC90404D5616C21F07A
:100AE0000601616400E0606484F83C00A16B294861
:100AF000274DC863A16B28480864A16B2748C864C8
:100B000021686FF0220008602068416841F0806130
:100B100041602068816841F48071816021681346DA
:100B200032464C31A06B00F011FA68681C49C006CF
:100B3000206806D0884224D1816811F0405F13D02C
:100B40001FE08842F8D0174A904203D1D1F804231D
:100B5000D206F1D0144A904213D1D1F8041301F017
:100B60001F011029E8D30CE0816841F080418160C9
:100B700007E0206C40F010002064606C40F0010041
:100B800060640020F8BD00007000002040420F00AB
:100B9000002301400B0400088F04000879040008BA
:100BA00000200140002101400022014070B543793E
:100BB000012B1CD0012646710223037105682B68A6
:100BC00002F0100440F6FE72A2409343D1E90021E6
:100BD0000A43A2401A432A6001680A68C023A3405E
:100BE0009A430A60067100214171084670BD0220D7
:100BF00070BD70B5040003D02079002510B105E068
:100C0000012070BD6571204600F008F802202071B7
:100C1000256101202071002070BD000010B586B054
:100C2000044614216846FFF789FB11492068884271
:100C30001CD110480021026842F000520260006896
:100C400000F0005005900B481038026842F0010295
:100C50000260006800F00100059010200090032061
:100C6000CDE901016946044800F0A8F906B010BDBD
:100C700000740040403802400000024070B54279E4
:100C8000012A1ED0012242710223037104682668E2
:100C900001F0100302FA03F52E43266000290168D3
:100CA00011D00C6804F470153C249C40A54203D17B
:100CB0004B6843F002034B6002710021417108460A
:100CC00070BD022070BD0B68C3F383030F2BF3D1FB
:100CD0004B6843F00103EEE72DE9F84304464FF07B
:100CE0000009CDF8009063484FF41651A56D0068D7
:100CF000B0FBF1F72E6894F85C10082000FA01F1BF
:100D000031420FD021680A6852070BD50A6822F0D9
:100D100004020A6094F85C108840A860606D40F09E
:100D20000100606594F85C104FF0010808FA01F0CA
:100D3000304208D021684969090604D5A860606D71
:100D400040F00200606594F85C1004208840304256
:100D500008D021680968890704D5A860606D40F053
:100D60000400606594F85C1010208840304218D070
:100D700021680968090714D5A8602068016849033B
:100D800004D50068000308D5A16C07E00168C90517
:100D900003D4016821F008010160216C09B12046EB
:100DA000884794F85C1020208840304231D0216878
:100DB0000968C9062DD5A86094F835000528206873
:100DC000016806D0490347D5006800031DD4616C53
:100DD0001CE021F0160101602068416921F08001CA
:100DE0004161206C08B9A06C20B12068016821F035
:100DF0000801016094F85C103F208840A86084F8E6
:100E0000358084F83490216D1FE0E16B09B12046F4
:100E10008847606D00282BD0606DC00714D0052076
:100E200084F835002068016821F001010160009814
:100E3000401C0090B84203D820680068C007F6D173
:100E400084F8358084F83490E16C002910D001B02A
:100E50002046BDE8F04308470168C905D5D40168BC
:100E600021F01001016084F8358084F83490CCE7DB
:100E7000BDE8F883700000202DE9F041044600F041
:100E80009BF906465CB1022084F83500002584F801
:100E900034502068016821F0010101600DE001205B
:100EA000BDE8F08100F088F9801B052805D92020D5
:100EB0006065032084F83500F2E720680068C00709
:100EC000F0D12268116820480140D4E90103184399
:100ED000D4E903363343184363691843A3691843BD
:100EE000E3691843236A18430843616A042903D15C
:100EF000D4E90B1319430843106020684069666AFF
:100F000020F0070130460E43012704280CD1A06AC7
:100F10000643E06A40B12046FFF73AFC20B140208A
:100F2000606584F83570BAE7206846612046FFF7AF
:100F30001BFC94F85C203F2191408160656584F83A
:100F400035700020ACE700003F8010F02DE9F04143
:100F50000446866D90F83400002501280DD001204C
:100F600084F8340094F835700020012F07D084F8FD
:100F7000340002252846BDE8F0810220FBE7022765
:100F800084F8357060652046FFF72CFC94F85C10FF
:100F90003F208840B0602068016841F01601016080
:100FA000206C20B12068016841F0080101602068D0
:100FB000016841F001010160DCE700002DE9F84F14
:100FC000DFF8BCA10022012503264FF00F090AF12A
:100FD000040BAAF1040E00BF0B6805FA02F42340CB
:100FE000A34270D10F7907F00307012F01D0022F20
:100FF00016D187684FEA420806FA08FC27EA0C0770
:10100000D1F80CC00CFA08FC4CEA070CC0F808C078
:101010004768A7430C79C4F3001494403C434460F0
:101020000C79E443A4070AD0C4684FEA420C06FADC
:101030000CF7BC438F6807FA0CF72743C7600C799D
:1010400004F00304022C12D1D40800EB840CDCF869
:1010500020405707FF0E09FA07F824EA0804D1F8E0
:10106000108008FA07F848EA0408CCF820800468E1
:101070004FEA420C06FA0CF7BC430F7907F003075E
:1010800007FA0CF7274307604C6814F4403F70D010
:101090003C4C276847F480472760246822F0030708
:1010A00004F480440094384C07EB040CDCF8084846
:1010B00097074FEA177809FA08F7BC43334FB8424D
:1010C00002D1002724E054E0314FB84201D101277A
:1010D0001EE0304FB84201D1022719E02E4FB8422E
:1010E00001D1032714E02D4FB84201D104270FE0AE
:1010F0002B4FB84201D105270AE02A4FB84201D14F
:10110000062705E0284FB84201D1072700E008274D
:1011100007FA08F72743CCF80878DAF80040574672
:10112000D1F804C09C435FEACC2C00D51C433C6042
:10113000DBF800405F46D1F804C09C435FEA8C2C8A
:1011400000D51C433C60DEF800407746D1F804C06F
:101150009C435FEA8C3C00D51C433C60084F083F31
:101160003C68D1F804C09C435FEACC3C00D51C43EA
:101170003C60521C102AFFF42FAFBDE8F88F00002E
:10118000083C014044380240003001400000024069
:101190000004024000080240000C0240001002401F
:1011A0000014024000180240001C02400AB1816194
:1011B00070470904FBE700000148806870470000A1
:1011C0006400002002488168027811448160704701
:1011D000640000200B4810B5016841F40071016003
:1011E000016841F480610160016841F4807101602F
:1011F000032000F06FF80F2000F006F800F024F84C
:10120000002010BD003C024070B50D4D04464FF467
:101210007A712878B1FBF0F00A490968B1FBF0F067
:1012200000F0EAFA48B9102C07D200222146501EDD
:1012300000F030F800206C6070BD012070BD00002F
:1012400064000020700000200A4808B5016841F4DD
:1012500080410160006800F4804000900548001F54
:10126000016841F080510160006800F080500090FA
:1012700008BD000044380240002809DB00F01F02CE
:10128000012191404009800000F1E020C0F80011E8
:1012900070470000F0B40E4B1B680C46C3F30223EA
:1012A000C3F10705042D00D90425191D072901D212
:1012B000002300E0DB1E012606FA05F1491E21404D
:1012C00099409E40761E16403143F0BC01F066BB4B
:1012D0000CED00E0064900F0070208684FF6FF0336
:1012E000184040EA0220034A10430860704700009B
:1012F0000CED00E00000FA052DE9F0470E46050070
:1013000065D0DFF81481D8F80000F7B200F00700CC
:10131000B04207D288F80070D8F8000000F007004B
:10132000B04254D128683D4C810712D5400703D5FF
:10133000206840F4E05020602878000703D520683A
:1013400040F4604020602068A96820F0F000084365
:1013500020602878C0072DD03049686808390128F6
:1013600012D0022813D0032811D009688907002958
:101370002DDA216821F0030101432160FFF71CFFF2
:10138000814641F2883A0EE009688903EFE709686F
:101390008901ECE7FFF710FFA0EB0901514502D9E5
:1013A0000320BDE8F0872068696800F00C00B0EB0E
:1013B000810FEFD1D8F80010404601F00701B1428B
:1013C00007D90770006800F00700B04201D0012083
:1013D000E7E72878400705D52068E96820F4E05061
:1013E000084320602878000706D52068296920F482
:1013F000604040EAC100206000F018F82168084A07
:10140000C1F30311515CC8400649086006480068F2
:10141000FFF7FAFE0020C4E7003C02400838024013
:10142000C02A00087000002068000020154810B590
:10143000006810F00C02144813D04110042A0FD099
:10144000082A0ED10F4C241F2268236802F03F02A5
:101450005B0207D52068C0F38810A0FB010106E0FD
:10146000084610BD2168C1F38811A1FB00010023CB
:10147000FEF72CFF2168C1F30141491C4900B0FB74
:10148000F1F010BD083802400024F4002DE9F84FB7
:1014900004006ED02078DFF84C93C007A9F1040552
:1014A0004AD009F104000168C1F38101012908D083
:1014B0000068C0F3810002280AD1D9F80000400278
:1014C00006D52868800337D560680028E1D033E06E
:1014D0006068B0F5803F10D0B0F5A02F286810D01C
:1014E00020F480302860286820F48020286060681C
:1014F000A8B1FFF761FE06460DE0286840F4803091
:10150000F4E740F480202860F7E700BFFFF754FEBF
:10151000801B642873D828688003F7D50CE0FFF798
:101520004BFE064605E000BFFFF746FE801B642821
:10153000F0D828688003F7D42078DFF8AC828007E1
:101540004FF0000A3ED5A748001D016811F00C0FAE
:1015500008D00068C0F3810002280BD1D9F8000040
:10156000400207D42868800716D5E068012800D11A
:1015700012E033E1E068B8B10120C8F80000FFF7DD
:101580001BFE064605E000BFFFF716FE801B022883
:10159000C0D828688007F7D52868216920F0F800AE
:1015A00040EAC10028600DE0C8F800A0FFF704FE83
:1015B000064604E0FFF700FE801B02281FD82868BB
:1015C0008007F7D42078000722D5864F87486169C5
:1015D000703771B101210160FFF7EEFD064604E0AE
:1015E000FFF7EAFD801B022809D838688007F7D585
:1015F0000EE0C0F800A0FFF7DFFD064605E082E040
:10160000FFF7DAFD801B02287DD838688007F7D401
:101610002078400768D5DFF8CCB100270BF13C0BF0
:10162000DBF80000C0000BD4DBF8001041F0805163
:10163000CBF80010DBF80000012700F0805000908C
:101640006B4E3068C00510D4306840F48070306054
:10165000FFF7B2FD009005E0FFF7AEFD0099401ADC
:10166000022850D83068C005F6D55E4EA0686C36AA
:1016700001280FD00528306810D020F0010030601C
:10168000306820F004003060A068B8B1FFF794FD26
:1016900000900FE0306840F00100F4E740F00400F3
:1016A0003060F7E7FFF788FD0099411A41F2883072
:1016B000814266D830688007F4D50EE0FFF77CFDE4
:1016C000009007E0FFF778FD0099411A41F2883059
:1016D000814256D830688007F4D42FB1DBF800106F
:1016E00021F08051CBF80010A069C8B33D49091D15
:1016F0000968C1F3810102294AD00228504607D067
:10170000C8F8600000E03CE0FFF756FD04463BE00F
:101710004746C8F86000FFF74FFD064605E000BFEA
:10172000FFF74AFD801B02282BD828688001F7D4D8
:10173000D4E907010843A16A2E4A490802EB014196
:10174000626A41EA8211084394F82C1040EA016170
:10175000C9F8001001203866FFF72EFD044606E0A8
:101760003EE000BFFFF728FD001B022809D82868CB
:101770008001F7D534E000BFFFF71EFD001B0228F3
:1017800002D90320BDE8F88F28688001F4D427E04F
:101790000128F7D0D9F80000E26900F480019142F5
:1017A0001CD1226A00F03F01914217D147F6C07167
:1017B000626A0140B1EB821F10D1A26A4FF0FF3381
:1017C00000F4403103EB5202B1EB024F06D194F822
:1017D0002C1000F07060B0EB016F01D00120D1E758
:1017E0000020CFE70438024000004742800E474205
:1017F000007000400000FFFF10B5401EB0F1807F78
:1018000001D3012010BD4FF0E02460610F2160176B
:1018100001F0C4F80020A06107202061002010BD65
:101820007047704710B590F83C20012A22D0012261
:1018300080F83C20CA688C6822F4407222434C68CD
:1018400022F4806222430C6822F4006222430C6975
:1018500022F4805222434C6922F400522243C96987
:10186000002322F480420A4301684A6480F83C3035
:10187000002010BD022010BD70B590F83C20012A58
:1018800032D0012480F83C40022280F83D200368D9
:101890005A689D6822F070060A6832435A60134BFA
:1018A00002689A4214D0B2F1804F11D0104B9A4284
:1018B0000ED0104B9A420BD00F4B9A4208D00F4BD0
:1018C0009A4205D00E4B9A4202D00E4B9A4204D156
:1018D000496825F080031943916080F83D4000215C
:1018E00080F83C10084670BD022070BD0000014029
:1018F0000004004000080040000C004000040140CB
:10190000004001400018004010B5040003D094F8D6
:101910003D0010B107E0012010BD002084F83C001C
:10192000204600F01FF8022084F83D00211D2068A9
:1019300000F0CAFE012084F8460084F83E0084F8D6
:101940003F0084F8400084F8410084F8420084F8A5
:10195000430084F8440084F8450084F83D000020EA
:1019600010BD000008B501682A48814227D12A48E5
:10197000016841F0010101600068002200F00100EF
:10198000009011461820FFF785FC1820FFF774FC23
:10199000002211461920FFF77DFC1920FFF76CFC8F
:1019A000002211461A20FFF775FC1A20FFF764FC8D
:1019B000002211461B20FFF76DFC1B2015E0164886
:1019C000001FB1F1804F14D0144A914220D1016818
:1019D00041F0020101600068002200F00200009066
:1019E00011461D20FFF756FC1D20BDE80840FFF7FB
:1019F00043BC016841F0010101600068002200F071
:101A00000100009011461C20FFF744FC1C20ECE76D
:101A100008BD0000000001404438024000040040BE
:101A200090F83D10012901D001207047022180F873
:101A30003D100168CA6842F00102CA60006811499D
:101A4000884214D0B0F1804F11D00F4988420ED097
:101A50000E4988420BD00E49884208D00D49884271
:101A600005D00D49884202D00C49884204D18168D2
:101A700001F00701062903D0016841F0010101606E
:101A800000207047000001400004004000080040B2
:101A9000000C0040000401400040014000180040DC
:101AA00070B5044690F83C000025012817D00126A7
:101AB00084F83C60022084F83D002068826822F0AF
:101AC000770222F47F4282600868502838D00DDC0B
:101AD00020284FD005DC90B3102811D14AE0022015
:101AE00070BD302846D040280AD13BE060282FD076
:101AF00070280DD0B0F5805F03D0B0F5005F12D034
:101B0000012584F83D60002084F83C00284670BD23
:101B1000CB68D1E90121206800F047FE2068816888
:101B200041F0770109E0CB68D1E90121206800F09C
:101B30003CFE2068816841F480418160E1E719E062
:101B4000CA684968206800F005FF5021206806E057
:101B5000CA684968206800F00EFF6021206800F024
:101B60002EFECEE7CA684968206800F0F3FE4021E7
:101B70002068F4E7226801461046F0E7704770B528
:101B80000446006801694FF00005C943890715D470
:101B9000C168C943890711D4E91E0161012020777A
:101BA000206880698007204602D0FFF7E7FF04E045
:101BB00000F0C2F8204600F054F92577206801694A
:101BC000C943490717D4C168C943490713D46FF003
:101BD00004010161022020772068806910F4407FB1
:101BE000204602D0FFF7CAFF04E000F0A5F8204627
:101BF00000F037F9257720680169C943090716D431
:101C0000C168C943090712D46FF0080101610420BB
:101C100020772068C0698007204602D0FFF7AEFF1A
:101C200004E000F089F8204600F01BF925772068D1
:101C30000169C943C90617D4C168C943C90613D489
:101C40006FF010010161082020772068C06910F44E
:101C5000407F204602D0FFF791FF04E000F06CF8CF
:101C6000204600F0FEF8257720680169C943C907BE
:101C700008D1C168C943C90704D1891E0161204642
:101C800000F054F920680169C943090609D4C16804
:101C9000C943090605D46FF0800101612046FFF7B2
:101CA000BFFD20680169C943490609D4C168C94319
:101CB000490605D46FF040010161204600F0D0F9DB
:101CC00020680169C94389060BD4C168C9438906E4
:101CD00007D46FF0200101612046BDE87040FFF796
:101CE000A0BD70BD10B586B0044614216846FEF74D
:101CF00025FB0E492068884216D10D480021026854
:101D000042F010020260006800F0100005904FF4ED
:101D1000285000900220CDE901010120CDE90310F7
:101D200069460448FFF74AF906B010BD00000140BB
:101D30003038024000100240704770B5044690F8F9
:101D40003C0000260D4601280FD0012084F83C00FD
:101D50006AB1042A1DD0082A2FD00C2A3FD00126B0
:101D6000002084F83C00304670BD022070BD206821
:101D700000F02EFD2068816941F008018161206832
:101D8000816921F004018161206881692A69114318
:101D900011E0206800F04CFD2068816941F4006189
:101DA00081612068816921F4806181612068816995
:101DB0002A6941EA02218161D2E7206800F06EFDC4
:101DC0002068C16941F00801C1612068C16921F042
:101DD0000401C1612068C1692A69114311E02068CA
:101DE00000F090FD2068C16941F40061C161206884
:101DF000C16921F48061C1612068C1692A6941EA31
:101E00000221C161ACE710B5040003D094F83D0095
:101E100010B107E0012010BD002084F83C002046EE
:101E200000F01EF8022084F83D00211D206800F01B
:101E30004BFC012084F8460084F83E0084F83F0003
:101E400084F8400084F8410084F8420084F843009C
:101E500084F8440084F8450084F83D00002010BD5B
:101E60007047704710B50446022249B104290ED0CC
:101E7000082913D094F84100012816D0012010BD84
:101E800094F83E000128F9D184F83E200FE094F840
:101E90003F000128F2D184F83F2008E094F8400088
:101EA0000128EBD184F8402001E084F84120012290
:101EB000206800F06DFC16492068164A884201D05F
:101EC000904203D1436C43F400434364206888424A
:101ED00013D0B0F1804F10D00F4988420DD00F4978
:101EE00088420AD00E49884207D0904205D00D4959
:101EF000884202D00C49884204D1816801F0070170
:101F0000062903D0016841F001010160002010BDE5
:101F100000000140000401400004004000080040AF
:101F2000000C0040004001400018004070B53E4DDC
:101F3000A84278D104223D493D48FEF78DFD3B483B
:101F4000DFED3C0A9FED3C1A0188A0F1180400EE79
:101F5000101AB8EE400A20EE200A20EE010A84EDA5
:101F6000000A408801EE900A0A20F8EE611A61EE3C
:101F7000A00A60EE810AC4ED010AFEF773FB84ED4E
:101F8000040A0A2094ED010AFEF71AFB84ED050A03
:101F9000D4ED040A9FED291ADFED291A30EEC11A9B
:101FA000C1EE210A9FED271A30EE410A9FED261A55
:101FB000C0EE011AC4ED020AB1EE600AC4ED031AC4
:101FC00000F0AAFA214894ED030A9FED211AD0ED02
:101FD000070A10EE810A00F05FFA1E4890ED050A2C
:101FE0000020B5EEC00AF1EE10FA0BDD2A68DFED35
:101FF0001A0A60EE200AFCEEE00A10EE901A9163D5
:102000002968C863B5EEC00AF1EE10FA0BD22A684F
:10201000DFED120A20EE200ABCEEC00A10EE101A04
:10202000D1632968886370BDA40B00205C00002088
:10203000E80A002000008039333353400681D53F41
:10204000787AA53C46B6D33FCDCCCC3EA40C00203C
:10205000333333401001002066668641666686C1D0
:102060007047FEE77FB5002524480095019502954D
:1020700021490395016001244FF480310461C0E9D6
:102080000115057680F820501D49C0E90A1504267F
:10209000C661C56080F830404461FEF764FC08B159
:1020A000FEF7B5FBCDE900540225694613480295B9
:1020B000FEF7B0FB08B1FEF7AAFB69460F48CDE971
:1020C0000045FEF7A7FB08B1FEF7A1FB0324CDE90D
:1020D000005469460948FEF79DFB08B1FEF797FBDF
:1020E000CDE9004669460548FEF794FB002801D07B
:1020F000FEF78DFB7FBD000000200140E80A0020B4
:102100000100000F1CB500240C4900940A480194FA
:1021100008600846FEF76DFD08B1FEF778FB0094F5
:102120000022694605480194FEF740FD002801D0D1
:10213000FEF76DFB1CBD000000740040900B0020FA
:10214000094808B5016841F4800101600068002277
:1021500000F48000009011463820FFF79BF8BDE89E
:1021600008403820FFF788B83038024030B587B0D3
:1021700014216846FEF7E2F81A480024016841F08D
:1021800010010160016801F010010591016841F042
:1021900004010160016801F004010591016841F04A
:1021A00080010160016801F080010591016841F042
:1021B0000101016000680C4D00F001000590002253
:1021C00061212846FEF7F2FF612000900120CDE951
:1021D00001040220039069462846FEF7EFFE07B08F
:1021E00030BD0000303802400010024010B596B0FB
:1021F00000240F9410941194129413941C21684697
:102200001494FEF79BF8202107A8FEF797F83148B1
:102210002F49C0E900142021816042F2CF01C0E9BA
:1022200003148021C0E90541FFF76EFB08B1FEF7FA
:10223000EEFA4FF480500F900FA92648FFF730FCBC
:1022400008B1FEF7E4FA2348FFF7DDFD08B1FEF719
:10225000DEFA139413A91F481494FFF70DFB08B17D
:10226000FEF7D5FA6020CDE90004029403940494AB
:1022700005940022694617480694FFF75EFD08B1F1
:10228000FEF7C5FA042269461248FFF756FD08B169
:10229000FEF7BDFA082269460E48FFF74EFD08B169
:1022A000FEF7B5FA0794089409944FF400500A9485
:1022B000CDE90B4007A907480E94FFF7B3FA08B120
:1022C000FEF7A5FA0348FFF70DFD16B010BD00009C
:1022D00000000140A40B002010B586B00024164871
:1022E000009401940294039404944FF08041059467
:1022F000C0E9001440F63301C0E9024180210461C5
:102300008161FFF701FB08B1FEF781FA4FF48050BD
:10231000009069460848FFF7C3FB08B1FEF777FA5B
:10232000049404A904480594FFF7A6FA002801D0F4
:10233000FEF76DFA06B010BDEC0B002010B586B0AC
:1023400000241748009401940294039404941349C0
:102350000594C0E9001442F2CF01C0E90241802196
:1023600004618161FFF7D0FA08B1FEF750FA4FF42B
:102370008050009069460A48FFF792FB08B1FEF7CB
:1023800046FA049404A906480594FFF775FA002854
:1023900001D0FEF73CFA06B010BD0000000400407A
:1023A000340C0020FEE7FEE7D0ED000A30EEC00A54
:1023B00080ED040AD0ED080A90ED011AD0ED051A5F
:1023C00041EE000A90ED021A41EE210A90ED031A47
:1023D000D0ED061A41EE210AC0ED070A90ED091A68
:1023E000F4EEC10AF1EE10FA02DCB0EE601A01E080
:1023F00080ED071AD0ED0A0AB4EEE01AF1EE10FAF9
:1024000002D3F0EE410A01E0C0ED070AC0ED080A70
:1024100080ED050A80ED060A704700009FED170A5F
:10242000DFED170A81ED000A81ED010AC1ED040A12
:1024300081ED050A81ED060A80ED000A80ED010AB2
:102440001048DFED110A80ED010A80ED000A80EDF1
:10245000020A80ED030AC0ED050ADFED0C0AC0EDAB
:10246000040ADFED0B0A80ED060AC0ED070ADFED76
:10247000090AC0ED080A80ED090A70470000000053
:10248000DA0FC93F7C0C00200AD7233D9A99994066
:102490000000FA440000FAC41D4880ED080AD0ED9F
:1024A000000A90ED011A90ED092A60EE800AD0ED45
:1024B0000A1AD0ED072A41EE020A90ED021A41EE07
:1024C000210A90ED031AD0ED061A41EE610A90ED53
:1024D000041A41EE620AC0ED050A90ED0B1AF4EE03
:1024E000C10AF1EE10FA06DC90ED0C1AF4EEC10A06
:1024F000F1EE10FA01D280ED051A80ED0A2A80ED86
:10250000090AC0ED071A90ED050A80ED060A70472A
:10251000100100207047704710B52C4C2DED028B38
:10252000F0EE408A94ED000A9FED298A20EE080A19
:10253000FDF782FE84ED010A94ED000A20EE080A00
:10254000FDF73EFE84ED020AB0EE680A2148FEF770
:10255000DBF82048B0EE680A2C30FEF7D5F81D48AD
:10256000D0ED080A2C30C4ED030A90ED080A403083
:1025700084ED040A94ED021AD4ED011A20EE812AAA
:1025800000EE212A20EE010A00EEE10A84ED052A80
:1025900084ED060AFFF708FF0E486C3090ED070A3D
:1025A00000F01CFA0B48583090ED030A5C3884EDBB
:1025B000000AD0ED000A30EE200A20EE080AFDF7EE
:1025C000FFFD84ED070ABDEC028B10BDA40C0020BA
:1025D000DB0F494078000020FEF7F4BD30B593B022
:1025E00030216846FDF7AAFE14210CA8FDF7A6FECF
:1025F0001D480025016841F080510160006800F02D
:10260000805011901948016841F4804101600068D0
:10261000022400F4804011900120009000040190F9
:102620008001CDE9064008AA0420A82182E8130011
:102630000B906846FEF72AFF08B172B6FEE70CA9B8
:102640000F2081E831004FF4A0500F904FF48050DC
:10265000109005210CA8FEF74FFE002801D072B69D
:10266000FEE713B030BD000040380240007000406B
:102670000248016841F470010160704788ED00E094
:102680000148FFF77CBA0000A40B00200148FFF7C7
:1026900076BA0000A40B00200148FFF770BA0000D2
:1026A000A40B00200148FFF76ABA0000A40B002029
:1026B0000148FFF764BA0000EC0B00200148FFF767
:1026C0005EBA0000340C0020F0B50268254C264D9F
:1026D000264E274F274B4FF0804CA04209D0604533
:1026E00007D0A84205D0B04203D0B84201D09842EA
:1026F00004D122F0700E4A6842EA0E02A0421BD0BA
:10270000604519D0A84217D0B04215D0B84213D0B6
:10271000984211D0184DA8420ED0184DA8420BD0A7
:10272000174DA84208D0174DA84205D0164DA84213
:1027300002D0164DA84203D122F44075CA682A433C
:102740004D6922F080022A4302608A68C2620A68E8
:102750008262A04201D0984201D10969016301213E
:102760004161F0BD0000014000040040000800404D
:10277000000C0040000401400040014000440140C2
:102780000048014000180040001C004000200040AC
:1027900010B501F01F030121046A99408C430462C3
:1027A000016A9A401143016210BD10B5846842EA83
:1027B000032224F47F440A432243826010BD8268CE
:1027C00022F070020A4342F0070181607047000066
:1027D000F0B5026A22F001020262036A426884696B
:1027E000124E24F073050C682C4323F002058B680D
:1027F0002B430D4DA84201D0B04205D123F008076C
:10280000CB683B4323F00403A84201D0B04205D17A
:102810004D6922F4407215438A692A4342608461FB
:10282000496841630362F0BD0000014000040140BB
:10283000F0B5026A22F010020262026A43688469FB
:102840000D6824F4E64444EA05248D6822F0200251
:1028500042EA05120F4D104EA84201D0B04206D1F7
:10286000CF6822F0800242EA071222F04002A8421A
:1028700001D0B04207D14D6923F4406343EA850398
:102880008D6943EA8503436084614968816302621C
:10289000F0BD00000000014000040140F0B5026AF4
:1028A00022F480720262026A4368C46922F40072F0
:1028B00024F073050C68124E2C438D6842EA052201
:1028C0000E4DA84201D0B04206D1CF6822F400627A
:1028D00042EA072222F48062A84201D0B04207D126
:1028E0004D6923F4405343EA05138D6943EA051308
:1028F0004360C4614968C1630262F0BD00000140E9
:102900000004014030B5026A22F480520262046A77
:102910004268C3690D6823F4E64343EA05238D68E2
:1029200024F4005444EA0534084DA84202D0084D6E
:10293000A84204D14D6922F4804242EA85124260E5
:10294000C36149680164046230BD000000000140B9
:102950000004014010B5036A046A24F00104046213
:10296000846924F0F00444EA021423F00A020A43C2
:102970008461026210BD10B5036A23F01003036284
:102980008369046A23F4704343EA023224F0A0030B
:1029900043EA01118261016210BDFEE70907090ED9
:1029A000002804DB00F1E02080F80014704700F0FC
:1029B0000F0000F1E02080F8141D704702E008C805
:1029C000121F08C1002AFAD170477047002001E0A9
:1029D00001C1121F002AFBD170470000DFED160A6B
:1029E000164870EE200AC0ED010A90ED000AD0ED05
:1029F000021A20EE201A00EE211A90ED040A31EEA0
:102A0000000AB0EE001A10EE101A80ED030AB1F1C0
:102A1000804F02DD30EE410A06E010EE101AB1F1EF
:102A2000404F03D930EE010A80ED030A80ED040A1D
:102A3000C0ED020A7047000063149D43D0000020DF
:102A4000FEF7C8FBFFF7CAFDFFF790FBFFF778FB27
:102A5000FFF708FBFFF7CAFBFFF73EFCFFF76EFC32
:102A6000FFF750FB0F48FEF7DBFF0F48FEF7D8FFDC
:102A70000E48FEF7D5FF00210C48FFF7F3F90421BB
:102A80000A48FFF7EFF908210848FFF7EBF9084972
:102A9000A1F12800FFF7C2FC00210648FEF7EEF87E
:102AA000FEE70000EC0B0020340C0020A40B0020FB
:102AB000CC0A0020900B002000061016000610160D
:102AC00000000000000000000102030406070809DE
:102AD00000000000920E493CB10AC93C2BC3163DD0
:102AE0002EFB483D752B7B3D04A9963D80B6AF3D3E
:102AF00036BDC83D2FBCE13D73B2FA3D87CF093EDC
:102B00008340163EB5AB223EA2102F3ECF6E3B3E19
:102B1000C2C5473E0115543E135C603E7F9A6C3E31
:102B2000CCCF783EC07D823E938E883E229A8E3EE8
:102B300032A0943E86A09A3EE59AA03E128FA63E11
:102B4000D47CAC3EEF63B23E2A44B83E491DBE3E43
:102B500015EFC33E53B9C93ECA7BCF3E4136D53E81
:102B600080E8DA3E4F92E03E7533E63EBBCBEB3E6B
:102B7000EA5AF13ECBE0F63E275DFC3EE4E7003F3B
:102B80003D9C033F824B063F9BF5083F6B9A0B3FF2
:102B9000DA390E3FCDD3103F2A68133FD9F6153FDF
:102BA000C07F183FC6021B3FD17F1D3FCBF61F3FA2
:102BB0009967223F25D2243F5636273F1594293F57
:102BC0004AEB2B3FDE3B2E3FBB85303FC9C8323F2F
:102BD000F304353F233A373F4268393F3B8F3B3F51
:102BE000F9AE3D3F67C73F3F70D8413F01E2433FE9
:102BF00003E4453F65DE473F12D1493FF8BB4B3FF9
:102C0000029F4D3F207A4F3F3D4D513F4918533F62
:102C100031DB543FE595563F5348583F6AF2593FE0
:102C20001A945B3F532D5D3F05BE5E3F2146603FDA
:102C300097C5613F5A3C633F59AA643F880F663F7E
:102C4000D86B673F3CBF683FA7096A3F0C4B6B3F9F
:102C50005E836C3F93B26D3F9ED86E3F73F56F3FBE
:102C60000809713F5213723F4714733FDD0B743FE5
:102C70000BFA743FC6DE753F07BA763FC58B773FC8
:102C8000F853783F9812793F9DC7793F02737A3F96
:102C9000BE147B3FCDAC7B3F283B7C3FC9BF7C3F14
:102CA000AC3A7D3FCCAB7D3F23137E3FB0707E3F7F
:102CB0006DC47E3F580E7F3F6D4E7F3FAB847F3F9C
:102CC0000FB17F3F97D37F3F43EC7F3F11FB7F3FA7
:102CD0000000803F11FB7F3F43EC7F3F97D37F3F56
:102CE0000FB17F3FAB847F3F6D4E7F3F580E7F3FDC
:102CF0006DC47E3FB0707E3F23137E3FCCAB7D3FE3
:102D0000AC3A7D3FC9BF7C3F283B7C3FCDAC7B3F8D
:102D1000BE147B3F02737A3F9DC7793F9812793F7B
:102D2000F853783FC58B773F07BA763FC6DE753FCD
:102D30000BFA743FDD0B743F4714733F5213723F1D
:102D40000809713F73F56F3F9ED86E3F93B26D3F98
:102D50005E836C3F0C4B6B3FA7096A3F3CBF683FEB
:102D6000D86B673F880F663F59AA643F5A3C633F60
:102D700097C5613F2146603F05BE5E3F532D5D3FD5
:102D80001A945B3F6AF2593F5348583FE595563FC6
:102D900031DB543F4918533F3D4D513F207A4F3F5F
:102DA000029F4D3FF8BB4B3F12D1493F65DE473F85
:102DB00003E4453F01E2433F70D8413F67C73F3FCF
:102DC000F9AE3D3F3B8F3B3F4268393F233A373FA7
:102DD000F304353FC9C8323FBB85303FDE3B2E3F51
:102DE0004AEB2B3F1594293F5636273F25D2243FE7
:102DF0009967223FCBF61F3FD17F1D3FC6021B3F85
:102E0000C07F183FD9F6153F2A68133FCDD3103F36
:102E1000DA390E3F6B9A0B3F9BF5083F824B063F1A
:102E20003D9C033FE4E7003F275DFC3ECBE0F63EE0
:102E3000EA5AF13EBBCBEB3E7533E63E4F92E03EA5
:102E400080E8DA3E4136D53ECA7BCF3E53B9C93E13
:102E500015EFC33E491DBE3E2A44B83EEF63B23E65
:102E6000D47CAC3E128FA63EE59AA03E86A09A3E48
:102E700032A0943E229A8E3E938E883EC07D823E42
:102E8000CCCF783E7F9A6C3E135C603E0115543E79
:102E9000C2C5473ECF6E3B3EA2102F3EB5AB223E91
:102EA0008340163E87CF093E73B2FA3D2FBCE13D09
:102EB00036BDC83D80B6AF3D04A9963D752B7B3D20
:102EC0002EFB483D2BC3163DB10AC93C920E493C2E
:102ED00000000000920E49BCB10AC9BC2BC316BD4C
:102EE0002EFB48BD752B7BBD04A996BD80B6AFBD3A
:102EF00036BDC8BD2FBCE1BD73B2FABD87CF09BED8
:102F0000834016BEB5AB22BEA2102FBECF6E3BBE15
:102F1000C2C547BE011554BE135C60BE7F9A6CBE2D
:102F2000CCCF78BEC07D82BE938E88BE229A8EBEE4
:102F300032A094BE86A09ABEE59AA0BE128FA6BE0D
:102F4000D47CACBEEF63B2BE2A44B8BE491DBEBE3F
:102F500015EFC3BE53B9C9BECA7BCFBE4136D5BE7D
:102F600080E8DABE4F92E0BE7533E6BEBBCBEBBE67
:102F7000EA5AF1BECBE0F6BE275DFCBEE4E700BF37
:102F80003D9C03BF824B06BF9BF508BF6B9A0BBFEE
:102F9000DA390EBFCDD310BF2A6813BFD9F615BFDB
:102FA000C07F18BFC6021BBFD17F1DBFCBF61FBF9E
:102FB000996722BF25D224BF563627BF159429BF53
:102FC0004AEB2BBFDE3B2EBFBB8530BFC9C832BF2B
:102FD000F30435BF233A37BF426839BF3B8F3BBF4D
:102FE000F9AE3DBF67C73FBF70D841BF01E243BFE5
:102FF00003E445BF65DE47BF12D149BFF8BB4BBFF5
:10300000029F4DBF207A4FBF3D4D51BF491853BF5E
:1030100031DB54BFE59556BF534858BF6AF259BFDC
:103020001A945BBF532D5DBF05BE5EBF214660BFD6
:1030300097C561BF5A3C63BF59AA64BF880F66BF7A
:10304000D86B67BF3CBF68BFA7096ABF0C4B6BBF9B
:103050005E836CBF93B26DBF9ED86EBF73F56FBFBA
:10306000080971BF521372BF471473BFDD0B74BFE1
:103070000BFA74BFC6DE75BF07BA76BFC58B77BFC4
:10308000F85378BF981279BF9DC779BF02737ABF92
:10309000BE147BBFCDAC7BBF283B7CBFC9BF7CBF10
:1030A000AC3A7DBFCCAB7DBF23137EBFB0707EBF7B
:1030B0006DC47EBF580E7FBF6D4E7FBFAB847FBF98
:1030C0000FB17FBF97D37FBF43EC7FBF11FB7FBFA3
:1030D000000080BF11FB7FBF43EC7FBF97D37FBF52
:1030E0000FB17FBFAB847FBF6D4E7FBF580E7FBFD8
:1030F0006DC47EBFB0707EBF23137EBFCCAB7DBFDF
:10310000AC3A7DBFC9BF7CBF283B7CBFCDAC7BBF89
:10311000BE147BBF02737ABF9DC779BF981279BF77
:10312000F85378BFC58B77BF07BA76BFC6DE75BFC9
:103130000BFA74BFDD0B74BF471473BF521372BF19
:10314000080971BF73F56FBF9ED86EBF93B26DBF94
:103150005E836CBF0C4B6BBFA7096ABF3CBF68BFE7
:10316000D86B67BF880F66BF59AA64BF5A3C63BF5C
:1031700097C561BF214660BF05BE5EBF532D5DBFD1
:103180001A945BBF6AF259BF534858BFE59556BFC2
:1031900031DB54BF491853BF3D4D51BF207A4FBF5B
:1031A000029F4DBFF8BB4BBF12D149BF65DE47BF81
:1031B00003E445BF01E243BF70D841BF67C73FBFCB
:1031C000F9AE3DBF3B8F3BBF426839BF233A37BFA3
:1031D000F30435BFC9C832BFBB8530BFDE3B2EBF4D
:1031E0004AEB2BBF159429BF563627BF25D224BFE3
:1031F000996722BFCBF61FBFD17F1DBFC6021BBF81
:10320000C07F18BFD9F615BF2A6813BFCDD310BF32
:10321000DA390EBF6B9A0BBF9BF508BF824B06BF16
:103220003D9C03BFE4E700BF275DFCBECBE0F6BEDC
:10323000EA5AF1BEBBCBEBBE7533E6BE4F92E0BEA1
:1032400080E8DABE4136D5BECA7BCFBE53B9C9BE0F
:1032500015EFC3BE491DBEBE2A44B8BEEF63B2BE61
:10326000D47CACBE128FA6BEE59AA0BE86A09ABE44
:1032700032A094BE229A8EBE938E88BEC07D82BE3E
:10328000CCCF78BE7F9A6CBE135C60BE011554BE75
:10329000C2C547BECF6E3BBEA2102FBEB5AB22BE8D
:1032A000834016BE87CF09BE73B2FABD2FBCE1BD05
:1032B00036BDC8BD80B6AFBD04A996BD752B7BBD1C
:1032C0002EFB48BD2BC316BDB10AC9BC920E49BC2A
:1032D00000000080F43200080000002044010000DB
:1032E000B40300087033000844010020A40F00005C
:1032F000CC290008000D58F4FDB43F62149D43171B
:10330000B7D138320182101324F44009CDCCCC3D22
:103310008CF1333C1908000A18BC3C28FD3F74604E
:103320007ABF280923E6B43823E6343908091E2C6D
:1033300019C80214376009627AB24241B0B1C2239F
:10334000C8431A9604412348421A700429140017EE
:103350001AC8C36E28353F640603BB64A534BF7B1F
:10336000E8FFBF1FE17F3F1B7A44040200C4000056
:040000050800018965
:00000001FF
